:100000008EC0A8C0A7C0A6C0A5C0A4C0A3C0A2C0DF
:10001000A1C0A0C09FC09EC09DC09CC09BC09AC0F4
:1000200099C098C097C0EDC033C547C546C545C502
:1000300044C543C542C541C540C53FC53EC53DC594
:100040003CC53BC53AC539C538C537C536C535C5C4
:1000500034C533C532C531C530C52FC52EC52DC5F4
:100060002CC52BC52AC529C528C527C526C525C524
:1000700024C523C522C521C520C51FC51EC51DC554
:100080001CC502C51AC519C50AC31CC322C331C386
:1000900040C34CC35BC36DC376C38BC30EC50DC5D4
:1000A0000CC50BC50AC509C508C596C3A8C3B7C307
:1000B000C3C3D2C3E1C3EDC3FCC308C40BC417C49C
:1000C00026C42FC43BC444C450C45FC46EC474C4AB
:1000D00083C48FC49EC4A7C4B3C4B9C4C8C4EDC488
:1000E000ECC4EBC4EAC4E9C4E8C476C388C397C3CC
:1000F000A3C3B2C3C1C3CDC3DCC3E8C3EBC3F7C35F
:1001000006C40FC41BC424C430C43FC44EC454C46A
:1001100063C46FC47EC487C493C499C4A8C41124A3
:100120001FBECFEFD2E0DEBFCDBF11E0A0E0B1E057
:10013000E8EDFAE002C005900D92A431B107D9F7BD
:1001400021E0A4E1B1E001C01D92A332B207E1F7C2
:1001500002D0C0C455CFCF93DF9300D000D01F9200
:10016000CDB7DEB7E1E6F0E080E8808310823AD0D8
:10017000D3D0789480E091E0DCD065E0CE010196A8
:10018000ABD0BFD0813031F58981813021F4CE01EF
:100190000296CFD01BC08230C9F46A8170E0772705
:1001A00066272B8130E0332722278C8190E0982F1F
:1001B0008827622B732B682B792BCB01770FAA0B27
:1001C000BB0B2D81BC01CD01622B1ED165E0CE01A0
:1001D000019682D08FEC97E00197F1F700C0000004
:1001E000BBD0CFCF85E48093BC0086EC8093BA006F
:1001F000E4E1F1E0108211821282138215821482EE
:1002000008951F920F920FB60F9211248F939F9310
:10021000AF93BF93EF93FF93CF93DF931F92CDB72D
:10022000DEB78091B9008C7F95E899838038A1F082
:1002300018F4803631F03EC0883819F1803A41F127
:1002400039C00000809115018130A9F58981806451
:100250008983109215012FC00000E4E1F1E0A48130
:10026000B581938181E0890F8383A90FB11D90919E
:10027000BB009C9392818917F0F489818064898303
:100280001AC000001092170189818064898313C00D
:100290000000E4E1F1E093818281981307C080912E
:1002A0001401811103C081E080931401898180646D
:1002B000898301C0000089818093BC000F90DF9189
:1002C000CF91FF91EF91BF91AF919F918F910F903F
:1002D0000FBE0F901F9018959C01662389F04FB7B1
:1002E000F89491E00AC0E4E1F1E0108281E08183BA
:1002F000628313823583248390E09111F4CF4FBF42
:1003000008952FB7F89491E003C08091140190E014
:100310009111FBCF2FBF0895EAE1F1E01082118225
:100320001282138214821582168217821086CED012
:100330000895DC018C91EAE1F1E0818311968C91C2
:100340001197828312968C911297838313968C91C6
:10035000848381E008950895CF93DF935ED0A6D083
:1003600089EF90E00197F1F700C0000080911A0139
:10037000843038F4823040F4882331F0813069F0E1
:1003800031C0843011F12EC0E3E0F0E0E81BF10948
:10039000E65EFE4F81817AD12AC0E3E0F0E0E81BFF
:1003A000F109E65EFE4F818171D180911F0190912C
:1003B0002001A0912101B091220190FF18C060E0BE
:1003C00071E080E090E011D112C080911F01909106
:1003D0002001A0912101B0912201BC01CD017E7FBD
:1003E00004D105C08AE191E0B6DF80E00AC0CAE12D
:1003F000D1E08881D9D088818F5F65E05FD3988311
:1004000081E0DF91CF91089560931F0170932001E7
:10041000809321019093220108958BB181608BB963
:100420008BB182608BB98BB184608BB98BB18860E2
:100430008BB98BB180618BB98BB180628BB98BB179
:1004400080648BB985B1816085B988B1806888B9CD
:1004500085B1846085B985B1886085B985B18061D1
:1004600085B985B1806285B985B1806485B985B16A
:10047000806885B98BB180688BB98BB180688BB986
:100480008BB181608BB98BB182608BB98BB1846089
:100490008BB98BB188608BB98BB180618BB98BB113
:1004A00080628BB98BB180648BB9089588B18E7FDF
:1004B00088B988B18D7F88B988B18B7F88B988B1B8
:1004C000877F88B985B18E7F85B9089587B18160AE
:1004D00087B987B1826087B987B1846087B987B1EE
:1004E000886087B984B1816084B98AB181608AB932
:1004F0008AB182608AB98AB184608AB98AB1886017
:100500008AB98AB180618AB98AB180628AB98AB1AE
:1005100080648AB984B1816084B987B1806887B901
:1005200084B1846084B984B1886084B984B1806105
:1005300084B984B1806284B984B1806484B984B19F
:10054000806884B98AB180688AB98AB180688AB9BA
:100550008AB181608AB98AB182608AB98AB18460BD
:100560008AB98AB188608AB98AB180618AB98AB148
:1005700080628AB98AB180648AB9E0E8F0E080815B
:1005800080648083E1E8F0E08081886080838081FE
:1005900083608083109289001092880084B1826009
:1005A00084B984DF3ADF0895823099F028F48823F3
:1005B00041F0813051F00895833079F0843089F032
:1005C000089588B1816088B9089588B1826088B93A
:1005D000089588B1846088B9089588B1886088B921
:1005E000089585B1816085B9089561FF03C028B180
:1005F0002F7728B962FF03C025B12B7F25B963FF90
:1006000003C025B1277F25B964FF03C025B12F7E24
:1006100025B965FF03C025B12F7D25B966FF03C04D
:1006200025B12F7B25B967FF03C025B12F7725B9E9
:1006300070FF03C02BB12F772BB971FF03C02BB113
:100640002F772BB972FF03C02BB12E7F2BB973FF0D
:1006500003C02BB12D7F2BB974FF03C02BB12B7FAF
:100660002BB975FF03C02BB1277F2BB976FF03C0D1
:100670002BB12F7E2BB977FF03C02BB12F7D2BB968
:1006800080FF03C08BB18F7B8BB9089590E08B37CF
:10069000910508F012C2FC01EC5EFF4F09948BB18A
:1006A0008E7F8BB98BB18D7F8BB98BB18B7F8BB9E3
:1006B0008BB1877F8BB98BB18F7E8BB98BB18F7DDF
:1006C0008BB908958BB18D7F8BB98BB18B7F8BB933
:1006D00008958BB18E7F8BB98BB18D7F8BB98BB128
:1006E000877F8BB98BB18F7E8BB98BB18F7B8BB9A9
:1006F00008958BB18E7F8BB98BB18D7F8BB98BB108
:100700008B7F8BB98BB1877F8BB98BB18F7B8BB98B
:1007100008958BB18D7F8BB98BB18B7F8BB98BB1EA
:100720008F7D8BB98BB18F7B8BB908958BB18E7F09
:100730008BB98BB18B7F8BB98BB1877F8BB98BB129
:100740008F7D8BB98BB18F7B8BB908958BB18E7FE9
:100750008BB98BB18B7F8BB98BB1877F8BB98BB109
:100760008F7E8BB98BB18F7D8BB98BB18F7B8BB922
:1007700008958BB18E7F8BB98BB18D7F8BB98BB187
:100780008B7F8BB908958BB18E7F8BB98BB18D7FA9
:100790008BB98BB18B7F8BB98BB1877F8BB98BB1C9
:1007A0008F7E8BB98BB18F7D8BB98BB18F7B8BB9E2
:1007B00008958BB18E7F8BB98BB18D7F8BB98BB147
:1007C0008B7F8BB98BB1877F8BB98BB18F7D8BB9C9
:1007D0008BB18F7B8BB908958BB18E7F8BB98BB129
:1007E0008D7F8BB98BB18B7F8BB98BB18F7E8BB9A2
:1007F0008BB18F7D8BB98BB18F7B8BB908958BB10A
:100800008B7F8BB98BB1877F8BB98BB18F7E8BB987
:100810008BB18F7D8BB98BB18F7B8BB908958BB1E9
:100820008E7F8BB98BB1877F8BB98BB18F7E8BB964
:100830008BB18F7D8BB908958BB18D7F8BB98BB1C7
:100840008B7F8BB98BB1877F8BB98BB18F7E8BB947
:100850008BB18F7B8BB908958BB18E7F8BB98BB1A8
:10086000877F8BB98BB18F7E8BB98BB18F7D8BB925
:100870008BB18F7B8BB908958BB18E7F8BB98BB188
:100880008F7E8BB98BB18F7D8BB98BB18F7B8BB901
:1008900008958BB18E7F8BB98BB18B7F8BB98BB168
:1008A000877F8BB98BB18F7E8BB98BB18F7D8BB9E5
:1008B00008958BB18B7F8BB98BB18F7E8BB98BB148
:1008C0008F7D8BB98BB18F7B8BB908958BB18B7F6B
:1008D0008BB908958BB18D7F8BB98BB18B7F8BB921
:1008E0008BB1877F8BB98BB18F7E8BB908958BB11C
:1008F0008E7F8BB98BB18B7F8BB98BB18F7E8BB990
:100900008BB18F7D8BB98BB18F7B8BB908958BB1F8
:10091000877F8BB98BB18F7E8BB98BB18F7D8BB974
:1009200008958BB18E7F8BB98BB18B7F8BB98BB1D7
:100930008F7E8BB98BB18F7B8BB908958BB18B7FF9
:100940008BB98BB18F7E8BB98BB18F7B8BB90895AF
:100950008BB18B7F8BB98BB1877F8BB98BB18F7E3E
:100960008BB98BB18F7B8BB908958BB18E7F8BB98F
:100970008BB18D7F8BB98BB18F7E8BB98BB18F7D16
:100980008BB98BB18F7B8BB908958BB18E7F8BB96F
:100990008BB18D7F8BB98BB18B7F8BB98BB18F7DF9
:1009A0008BB98BB18F7B8BB908958BB18F7E8BB94F
:1009B0008BB18F7B8BB908958BB18E7F8BB98BB147
:1009C0008B7F8BB98BB1877F8BB98BB18F7D8BB9C7
:1009D0008BB18F7B8BB908958BB1877F8BB98BB12E
:1009E0008F7E8BB98BB18F7D8BB98BB18F7B8BB9A0
:1009F00008958BB18D7F8BB98BB18B7F8BB98BB108
:100A0000877F8BB98BB18F7E8BB98BB18F7D8BB983
:100A100008958BB18B7F8BB98BB1877F8BB98BB1ED
:100A20008F7E8BB908958BB18D7F8BB98BB1877F0A
:100A30008BB98BB18F7D8BB98BB18F7B8BB90895BF
:100A40008BB18B7F8BB98BB18F7E8BB908958BB1B6
:100A50008D7F8BB98BB18B7F8BB98BB1877F8BB936
:100A60008BB18F7D8BB98BB18F7B8BB908958BB197
:100A70008E7F8BB98BB18D7F8BB98BB1877F8BB913
:100A80008BB18F7E8BB908958BB18F7B8BB9089515
:100A90008BB181608BB98BB182608BB98BB1846073
:100AA0008BB98BB188608BB98BB180618BB98BB1FD
:100AB00080628BB98BB180648BB90895991B79E002
:100AC00004C0991F961708F0961B881F7A95C9F7DE
:080AD00080950895F894FFCF12
:100AD800494E495400424953540038383838004484
:040AE8004F4E450028
:00000001FF
